:1000000012C0189518951895189518951895189563
:100010001895189518951895189518951895189578
:100020001895189518958FED8DBFC8EBE0EA4E2E08
:10003000DD275D2EA89584B7082E877F84BF88E1D1
:10004000992781BD91BDEEE7F0E0A0E6B0E08827FA
:100050008D933197E9F70E94B902662480E081BB55
:100060008FEF87BB74B7777F74BF8EE181BD86E069
:1000700081BDBB9A81EA8FBD81E08EBDBB9A8FEFB7
:1000800090E090934B0080934A00C098C198C59827
:10009000C698C798E0E0F0E0A0E103D3013081E02A
:1000A00008F080E08F93E0E0F0E0A0E1FAD20430C5
:1000B00080E010F009F081E09F91892B882309F4FA
:1000C00008C0E0E0F0E0A0E1BB2781E08C937BE793
:1000D000D7D2E0E0F0E0A0E6E4D281B5886081BD4F
:1000E00000916000013009F067C0C09AC198C598BE
:1000F000C69881E08093610000916100093110F0A1
:1001000009F015C0AAE40D911C910A501040802FEF
:10011000912F90934B0080934A000BD18AE090E09E
:100120009BD2A1E68C918F5F8C9308F4E5CF81E0A0
:100130008093630000916300023010F009F00AC060
:100140008AE090E089D2F5D0A3E68C918F5F8C9302
:1001500008F4F0CF81E080936100009161000931E3
:1001600010F009F015C0AAE40D911C91065F1F4F15
:10017000802F912F90934B0080934A00DAD08AE031
:1001800090E06AD2A1E68C918F5F8C9308F4E5CF62
:1001900081E08093630000916300053010F009F066
:1001A0000AC08AE090E058D2C4D0A3E68C918F5F59
:1001B0008C9308F4F0CFBAC0023009F04AC0C0985E
:1001C000C19AC598C69881E0809361000091610052
:1001D000033010F009F029C080E090E090934B00CC
:1001E00080934A008AE090E037D2A3D08FEF90E06E
:1001F00090934B0080934A0081E0809363000091CC
:100200006300053010F009F00AC08AE090E024D2C3
:1002100090D0A3E68C918F5F8C9308F4F0CFA1E689
:100220008C918F5F8C9308F4D1CF81E08093630031
:10023000009163000E3110F009F00AC08AE090E0EE
:100240000BD277D0A3E68C918F5F8C9308F4F0CF1C
:100250006DC0033009F031C0C098C198C59AC698E6
:1002600080E090E090934B0080934A008AE090E019
:10027000F3D15FD08FEF90E090934B0080934A00D2
:100280008EE190E08A939A937BD1A6E60C9381E06D
:10029000809363004091660000916300041710F0A2
:1002A00009F00AC08AE090E0D7D143D0A3E68C9150
:1002B0008F5F8C9308F4EECF39C0043009F036C05C
:1002C000C098C198C598C69A80E090E090934B0082
:1002D00080934A0081E080936300009163000230C4
:1002E00010F009F00AC08AE090E0B6D122D0A3E66F
:1002F0008C918F5F8C9308F4F0CF8FEF90E0909308
:100300004B0080934A0081E080936300009163007A
:10031000053010F009F00AC08AE090E09DD109D0C4
:10032000A3E68C918F5F8C9308F4F0CFD9CEF8942C
:10033000FFCF829901C04DC0819B03C080E08093B4
:100340006500A0E30C9101FB81E00EF480E08F9347
:1003500000916500003081E009F080E09F918923E1
:10036000882309F40CC081E080936500A0E68C919D
:100370008F5F8C93E0E0F0E0A0E67BE781D180998D
:1003800015C0A7E6E8D0A7E60D911C91043F51E007
:10039000150714F009F001C009C080E090E0A7E65D
:1003A0008D939C93A0E68C918F5F8C93809B05C06E
:1003B00080E090E0A7E68D939C930091600004306C
:1003C00010F009F001C003C081E080936000A8959F
:1003D0000895C098C198C598C698C79A8FEF90E0C5
:1003E00090934B0080934A00A0E30C9103FB81E0C3
:1003F0000EF480E08F93AAE40D911C910F3F50E022
:10040000150781E009F080E09F918923882309F492
:1004100009C080E090E090934B0080934A0081E017
:1004200080936400A0E30C9104FB81E00EF480E073
:100430008F93AAE40D911C910F3F50E0150781E0C6
:1004400009F080E09F918923882309F41BC081E093
:1004500080936100009161000F3F10F009F012C01D
:10046000AAE480D082E080936400EF93FF93E4E7F6
:10047000F5E0E9D0FF91EF91A1E68C918F5F8C932D
:1004800008F4E8CF00916400013081E009F080E0D9
:100490008F93A0E30C9103FB81E00EF080E09F912D
:1004A00089238F93AAE40D911C91003050E0150729
:1004B00081E009F080E09F918923882309F406C038
:1004C0008FEF90E090934B0080934A00009164007E
:1004D000023081E009F080E08F93A0E30C9104FBEF
:1004E00081E00EF080E09F9189238F93AAE40D9123
:1004F0001C91003050E0150781E009F080E09F91E9
:100500008923882309F414C081E08093610000915D
:1005100061000F3F10F009F00BC0AAE41CD081E08D
:1005200090E09AD0A1E68C918F5F8C9308F4EFCF86
:10053000A895829902C058CF0CC08FEF90E090939D
:100540004B0080934A00C098C198C598C698C79838
:10055000C7CDF894FFCFED91FC91EF5FFF4FFC9377
:10056000EE930895ED91FC91E150F040FC93EE93F1
:10057000089515E000E000936A0010936B00089561
:1005800040916A0050916B000DEF13E449D00D5378
:10059000114600936A0010936B005991499126D03F
:1005A000089508D03DD000FC10D0089503D01ED08F
:1005B00001F8F9CF0024E89457FF02C009D06894ED
:1005C00000F80BD010F80124089502D009D0089546
:1005D000509540954F5F5F4F0895E89417FF089539
:1005E000009510950F5F1F4F68940895352F242FA5
:1005F000E894452B11F468940895512F402F00275B
:10060000112780E1440F551F001F111F021B130B00
:10061000416018F4020F131F4E7F8A9599F70895D1
:10062000752F642F55274427FF93F1E1889405C067
:1006300010F4460F571F5695479517950795FA954D
:10064000B9F7FF9108953197F1F70895689462F82A
:100650000895E89462F80895EF93FF93EE27E82B4E
:10066000E92B31F0E0EDF7E03197F1F70197D1F7A1
:10067000FF91EF910895E199FECFEEBB3196089579
:1006800091E001C092E07B3751F47FB7F894F3DF3B
:100690008D918DBBE29AE19A9A95C9F77FBF772732
:1006A000089591E001C092E0E6DFE09A8DB38D936A
:0606B0009A95D1F70895B0
:00000001FF
